{
  "_format": "hh-sol-artifact-1",
  "contractName": "SuperNFT",
  "sourceName": "contracts/SuperNFT.sol",
  "abi": [
    {
      "inputs": [
        {
          "internalType": "string",
          "name": "_name",
          "type": "string"
        },
        {
          "internalType": "string",
          "name": "_symbol",
          "type": "string"
        }
      ],
      "stateMutability": "nonpayable",
      "type": "constructor"
    },
    {
      "anonymous": false,
      "inputs": [
        {
          "indexed": true,
          "internalType": "address",
          "name": "owner",
          "type": "address"
        },
        {
          "indexed": true,
          "internalType": "address",
          "name": "approved",
          "type": "address"
        },
        {
          "indexed": true,
          "internalType": "uint256",
          "name": "tokenId",
          "type": "uint256"
        }
      ],
      "name": "Approval",
      "type": "event"
    },
    {
      "anonymous": false,
      "inputs": [
        {
          "indexed": true,
          "internalType": "address",
          "name": "owner",
          "type": "address"
        },
        {
          "indexed": true,
          "internalType": "address",
          "name": "operator",
          "type": "address"
        },
        {
          "indexed": false,
          "internalType": "bool",
          "name": "approved",
          "type": "bool"
        }
      ],
      "name": "ApprovalForAll",
      "type": "event"
    },
    {
      "anonymous": false,
      "inputs": [
        {
          "indexed": true,
          "internalType": "address",
          "name": "previousOwner",
          "type": "address"
        },
        {
          "indexed": true,
          "internalType": "address",
          "name": "newOwner",
          "type": "address"
        }
      ],
      "name": "OwnershipTransferred",
      "type": "event"
    },
    {
      "anonymous": false,
      "inputs": [
        {
          "indexed": true,
          "internalType": "address",
          "name": "from",
          "type": "address"
        },
        {
          "indexed": true,
          "internalType": "address",
          "name": "to",
          "type": "address"
        },
        {
          "indexed": true,
          "internalType": "uint256",
          "name": "tokenId",
          "type": "uint256"
        }
      ],
      "name": "Transfer",
      "type": "event"
    },
    {
      "inputs": [
        {
          "internalType": "address",
          "name": "to",
          "type": "address"
        },
        {
          "internalType": "uint256",
          "name": "tokenId",
          "type": "uint256"
        }
      ],
      "name": "approve",
      "outputs": [],
      "stateMutability": "nonpayable",
      "type": "function"
    },
    {
      "inputs": [
        {
          "internalType": "address",
          "name": "owner",
          "type": "address"
        }
      ],
      "name": "balanceOf",
      "outputs": [
        {
          "internalType": "uint256",
          "name": "",
          "type": "uint256"
        }
      ],
      "stateMutability": "view",
      "type": "function"
    },
    {
      "inputs": [
        {
          "internalType": "uint256",
          "name": "tokenId",
          "type": "uint256"
        }
      ],
      "name": "burn",
      "outputs": [],
      "stateMutability": "nonpayable",
      "type": "function"
    },
    {
      "inputs": [
        {
          "internalType": "string",
          "name": "tokenURI",
          "type": "string"
        }
      ],
      "name": "createNFT",
      "outputs": [
        {
          "internalType": "uint256",
          "name": "",
          "type": "uint256"
        }
      ],
      "stateMutability": "nonpayable",
      "type": "function"
    },
    {
      "inputs": [],
      "name": "exchange",
      "outputs": [
        {
          "internalType": "address",
          "name": "",
          "type": "address"
        }
      ],
      "stateMutability": "view",
      "type": "function"
    },
    {
      "inputs": [
        {
          "internalType": "uint256",
          "name": "tokenId",
          "type": "uint256"
        }
      ],
      "name": "getApproved",
      "outputs": [
        {
          "internalType": "address",
          "name": "",
          "type": "address"
        }
      ],
      "stateMutability": "view",
      "type": "function"
    },
    {
      "inputs": [
        {
          "internalType": "address",
          "name": "owner",
          "type": "address"
        },
        {
          "internalType": "address",
          "name": "operator",
          "type": "address"
        }
      ],
      "name": "isApprovedForAll",
      "outputs": [
        {
          "internalType": "bool",
          "name": "",
          "type": "bool"
        }
      ],
      "stateMutability": "view",
      "type": "function"
    },
    {
      "inputs": [],
      "name": "name",
      "outputs": [
        {
          "internalType": "string",
          "name": "",
          "type": "string"
        }
      ],
      "stateMutability": "view",
      "type": "function"
    },
    {
      "inputs": [],
      "name": "owner",
      "outputs": [
        {
          "internalType": "address",
          "name": "",
          "type": "address"
        }
      ],
      "stateMutability": "view",
      "type": "function"
    },
    {
      "inputs": [
        {
          "internalType": "uint256",
          "name": "tokenId",
          "type": "uint256"
        }
      ],
      "name": "ownerOf",
      "outputs": [
        {
          "internalType": "address",
          "name": "",
          "type": "address"
        }
      ],
      "stateMutability": "view",
      "type": "function"
    },
    {
      "inputs": [],
      "name": "renounceOwnership",
      "outputs": [],
      "stateMutability": "nonpayable",
      "type": "function"
    },
    {
      "inputs": [
        {
          "internalType": "address",
          "name": "from",
          "type": "address"
        },
        {
          "internalType": "address",
          "name": "to",
          "type": "address"
        },
        {
          "internalType": "uint256",
          "name": "tokenId",
          "type": "uint256"
        }
      ],
      "name": "safeTransferFrom",
      "outputs": [],
      "stateMutability": "nonpayable",
      "type": "function"
    },
    {
      "inputs": [
        {
          "internalType": "address",
          "name": "from",
          "type": "address"
        },
        {
          "internalType": "address",
          "name": "to",
          "type": "address"
        },
        {
          "internalType": "uint256",
          "name": "tokenId",
          "type": "uint256"
        },
        {
          "internalType": "bytes",
          "name": "_data",
          "type": "bytes"
        }
      ],
      "name": "safeTransferFrom",
      "outputs": [],
      "stateMutability": "nonpayable",
      "type": "function"
    },
    {
      "inputs": [
        {
          "internalType": "address",
          "name": "operator",
          "type": "address"
        },
        {
          "internalType": "bool",
          "name": "approved",
          "type": "bool"
        }
      ],
      "name": "setApprovalForAll",
      "outputs": [],
      "stateMutability": "nonpayable",
      "type": "function"
    },
    {
      "inputs": [
        {
          "internalType": "address",
          "name": "_exchangeAddress",
          "type": "address"
        }
      ],
      "name": "setExchangeAddress",
      "outputs": [],
      "stateMutability": "nonpayable",
      "type": "function"
    },
    {
      "inputs": [
        {
          "internalType": "bytes4",
          "name": "interfaceId",
          "type": "bytes4"
        }
      ],
      "name": "supportsInterface",
      "outputs": [
        {
          "internalType": "bool",
          "name": "",
          "type": "bool"
        }
      ],
      "stateMutability": "view",
      "type": "function"
    },
    {
      "inputs": [],
      "name": "symbol",
      "outputs": [
        {
          "internalType": "string",
          "name": "",
          "type": "string"
        }
      ],
      "stateMutability": "view",
      "type": "function"
    },
    {
      "inputs": [
        {
          "internalType": "uint256",
          "name": "tokenId",
          "type": "uint256"
        }
      ],
      "name": "tokenURI",
      "outputs": [
        {
          "internalType": "string",
          "name": "",
          "type": "string"
        }
      ],
      "stateMutability": "view",
      "type": "function"
    },
    {
      "inputs": [
        {
          "internalType": "address",
          "name": "from",
          "type": "address"
        },
        {
          "internalType": "address",
          "name": "to",
          "type": "address"
        },
        {
          "internalType": "uint256",
          "name": "tokenId",
          "type": "uint256"
        }
      ],
      "name": "transferFrom",
      "outputs": [],
      "stateMutability": "nonpayable",
      "type": "function"
    },
    {
      "inputs": [
        {
          "internalType": "address",
          "name": "newOwner",
          "type": "address"
        }
      ],
      "name": "transferOwnership",
      "outputs": [],
      "stateMutability": "nonpayable",
      "type": "function"
    }
  ],
  "bytecode": "0x60806040523480156200001157600080fd5b5060405162003cfb38038062003cfb833981810160405281019062000037919062000285565b818181600090805190602001906200005192919062000163565b5080600190805190602001906200006a92919062000163565b5050506200008d620000816200009560201b60201c565b6200009d60201b60201c565b505062000429565b600033905090565b6000600760009054906101000a900473ffffffffffffffffffffffffffffffffffffffff16905081600760006101000a81548173ffffffffffffffffffffffffffffffffffffffff021916908373ffffffffffffffffffffffffffffffffffffffff1602179055508173ffffffffffffffffffffffffffffffffffffffff168173ffffffffffffffffffffffffffffffffffffffff167f8be0079c531659141344cd1fd0a4f28419497f9722a3daafe3b4186f6b6457e060405160405180910390a35050565b828054620001719062000395565b90600052602060002090601f016020900481019282620001955760008555620001e1565b82601f10620001b057805160ff1916838001178555620001e1565b82800160010185558215620001e1579182015b82811115620001e0578251825591602001919060010190620001c3565b5b509050620001f09190620001f4565b5090565b5b808211156200020f576000816000905550600101620001f5565b5090565b60006200022a62000224846200032c565b620002f8565b9050828152602081018484840111156200024357600080fd5b620002508482856200035f565b509392505050565b600082601f8301126200026a57600080fd5b81516200027c84826020860162000213565b91505092915050565b600080604083850312156200029957600080fd5b600083015167ffffffffffffffff811115620002b457600080fd5b620002c28582860162000258565b925050602083015167ffffffffffffffff811115620002e057600080fd5b620002ee8582860162000258565b9150509250929050565b6000604051905081810181811067ffffffffffffffff82111715620003225762000321620003fa565b5b8060405250919050565b600067ffffffffffffffff8211156200034a5762000349620003fa565b5b601f19601f8301169050602081019050919050565b60005b838110156200037f57808201518184015260208101905062000362565b838111156200038f576000848401525b50505050565b60006002820490506001821680620003ae57607f821691505b60208210811415620003c557620003c4620003cb565b5b50919050565b7f4e487b7100000000000000000000000000000000000000000000000000000000600052602260045260246000fd5b7f4e487b7100000000000000000000000000000000000000000000000000000000600052604160045260246000fd5b6138c280620004396000396000f3fe608060405234801561001057600080fd5b506004361061012c5760003560e01c80638da5cb5b116100ad578063d082ea8c11610071578063d082ea8c1461032d578063d2f7265a14610349578063da2ed03e14610367578063e985e9c514610397578063f2fde38b146103c75761012c565b80638da5cb5b1461028957806395d89b41146102a7578063a22cb465146102c5578063b88d4fde146102e1578063c87b56dd146102fd5761012c565b806342842e0e116100f457806342842e0e146101e757806342966c68146102035780636352211e1461021f57806370a082311461024f578063715018a61461027f5761012c565b806301ffc9a71461013157806306fdde0314610161578063081812fc1461017f578063095ea7b3146101af57806323b872dd146101cb575b600080fd5b61014b60048036038101906101469190612669565b6103e3565b60405161015891906130de565b60405180910390f35b6101696104c5565b60405161017691906130f9565b60405180910390f35b610199600480360381019061019491906126fc565b610557565b6040516101a69190613077565b60405180910390f35b6101c960048036038101906101c4919061262d565b6105dc565b005b6101e560048036038101906101e09190612527565b6106f4565b005b61020160048036038101906101fc9190612527565b6108da565b005b61021d600480360381019061021891906126fc565b610a80565b005b610239600480360381019061023491906126fc565b610adc565b6040516102469190613077565b60405180910390f35b610269600480360381019061026491906124c2565b610b8e565b6040516102769190613407565b60405180910390f35b610287610c46565b005b610291610cce565b60405161029e9190613077565b60405180910390f35b6102af610cf8565b6040516102bc91906130f9565b60405180910390f35b6102df60048036038101906102da91906125f1565b610d8a565b005b6102fb60048036038101906102f69190612576565b610da0565b005b610317600480360381019061031291906126fc565b610e02565b60405161032491906130f9565b60405180910390f35b610347600480360381019061034291906124c2565b610e14565b005b610351610ed4565b60405161035e9190613077565b60405180910390f35b610381600480360381019061037c91906126bb565b610efa565b60405161038e9190613407565b60405180910390f35b6103b160048036038101906103ac91906124eb565b610fad565b6040516103be91906130de565b60405180910390f35b6103e160048036038101906103dc91906124c2565b611041565b005b60007f80ac58cd000000000000000000000000000000000000000000000000000000007bffffffffffffffffffffffffffffffffffffffffffffffffffffffff1916827bffffffffffffffffffffffffffffffffffffffffffffffffffffffff191614806104ae57507f5b5e139f000000000000000000000000000000000000000000000000000000007bffffffffffffffffffffffffffffffffffffffffffffffffffffffff1916827bffffffffffffffffffffffffffffffffffffffffffffffffffffffff1916145b806104be57506104bd82611139565b5b9050919050565b6060600080546104d490613667565b80601f016020809104026020016040519081016040528092919081815260200182805461050090613667565b801561054d5780601f106105225761010080835404028352916020019161054d565b820191906000526020600020905b81548152906001019060200180831161053057829003601f168201915b5050505050905090565b6000610562826111a3565b6105a1576040517f08c379a000000000000000000000000000000000000000000000000000000000815260040161059890613307565b60405180910390fd5b6004600083815260200190815260200160002060009054906101000a900473ffffffffffffffffffffffffffffffffffffffff169050919050565b60006105e782610adc565b90508073ffffffffffffffffffffffffffffffffffffffff168373ffffffffffffffffffffffffffffffffffffffff161415610658576040517f08c379a000000000000000000000000000000000000000000000000000000000815260040161064f906133a7565b60405180910390fd5b8073ffffffffffffffffffffffffffffffffffffffff1661067761120f565b73ffffffffffffffffffffffffffffffffffffffff1614806106a657506106a5816106a061120f565b610fad565b5b6106e5576040517f08c379a00000000000000000000000000000000000000000000000000000000081526004016106dc90613247565b60405180910390fd5b6106ef8383611217565b505050565b610718604051806060016040528060268152602001613867602691398484846112d0565b610720610cce565b73ffffffffffffffffffffffffffffffffffffffff168373ffffffffffffffffffffffffffffffffffffffff1614806107a65750600960009054906101000a900473ffffffffffffffffffffffffffffffffffffffff1673ffffffffffffffffffffffffffffffffffffffff168373ffffffffffffffffffffffffffffffffffffffff16145b806107e357506107b4610cce565b73ffffffffffffffffffffffffffffffffffffffff168273ffffffffffffffffffffffffffffffffffffffff16145b8061083b5750600960009054906101000a900473ffffffffffffffffffffffffffffffffffffffff1673ffffffffffffffffffffffffffffffffffffffff168273ffffffffffffffffffffffffffffffffffffffff16145b61087a576040517f08c379a000000000000000000000000000000000000000000000000000000000815260040161087190613327565b60405180910390fd5b61088b61088561120f565b82611372565b6108ca576040517f08c379a00000000000000000000000000000000000000000000000000000000081526004016108c1906133c7565b60405180910390fd5b6108d5838383611450565b505050565b6108fe6040518060600160405280602a815260200161383d602a91398484846112d0565b610906610cce565b73ffffffffffffffffffffffffffffffffffffffff168373ffffffffffffffffffffffffffffffffffffffff16148061098c5750600960009054906101000a900473ffffffffffffffffffffffffffffffffffffffff1673ffffffffffffffffffffffffffffffffffffffff168373ffffffffffffffffffffffffffffffffffffffff16145b806109c9575061099a610cce565b73ffffffffffffffffffffffffffffffffffffffff168273ffffffffffffffffffffffffffffffffffffffff16145b80610a215750600960009054906101000a900473ffffffffffffffffffffffffffffffffffffffff1673ffffffffffffffffffffffffffffffffffffffff168273ffffffffffffffffffffffffffffffffffffffff16145b610a60576040517f08c379a0000000000000000000000000000000000000000000000000000000008152600401610a5790613227565b60405180910390fd5b610a7b83838360405180602001604052806000815250610da0565b505050565b610a91610a8b61120f565b82611372565b610ad0576040517f08c379a0000000000000000000000000000000000000000000000000000000008152600401610ac7906133e7565b60405180910390fd5b610ad9816116ac565b50565b6000806002600084815260200190815260200160002060009054906101000a900473ffffffffffffffffffffffffffffffffffffffff169050600073ffffffffffffffffffffffffffffffffffffffff168173ffffffffffffffffffffffffffffffffffffffff161415610b85576040517f08c379a0000000000000000000000000000000000000000000000000000000008152600401610b7c90613287565b60405180910390fd5b80915050919050565b60008073ffffffffffffffffffffffffffffffffffffffff168273ffffffffffffffffffffffffffffffffffffffff161415610bff576040517f08c379a0000000000000000000000000000000000000000000000000000000008152600401610bf690613267565b60405180910390fd5b600360008373ffffffffffffffffffffffffffffffffffffffff1673ffffffffffffffffffffffffffffffffffffffff168152602001908152602001600020549050919050565b610c4e61120f565b73ffffffffffffffffffffffffffffffffffffffff16610c6c610cce565b73ffffffffffffffffffffffffffffffffffffffff1614610cc2576040517f08c379a0000000000000000000000000000000000000000000000000000000008152600401610cb990613347565b60405180910390fd5b610ccc60006116b8565b565b6000600760009054906101000a900473ffffffffffffffffffffffffffffffffffffffff16905090565b606060018054610d0790613667565b80601f0160208091040260200160405190810160405280929190818152602001828054610d3390613667565b8015610d805780601f10610d5557610100808354040283529160200191610d80565b820191906000526020600020905b815481529060010190602001808311610d6357829003601f168201915b5050505050905090565b610d9c610d9561120f565b838361177e565b5050565b610db1610dab61120f565b83611372565b610df0576040517f08c379a0000000000000000000000000000000000000000000000000000000008152600401610de7906133c7565b60405180910390fd5b610dfc848484846118eb565b50505050565b6060610e0d82611947565b9050919050565b610e1c61120f565b73ffffffffffffffffffffffffffffffffffffffff16610e3a610cce565b73ffffffffffffffffffffffffffffffffffffffff1614610e90576040517f08c379a0000000000000000000000000000000000000000000000000000000008152600401610e8790613347565b60405180910390fd5b80600960006101000a81548173ffffffffffffffffffffffffffffffffffffffff021916908373ffffffffffffffffffffffffffffffffffffffff16021790555050565b600960009054906101000a900473ffffffffffffffffffffffffffffffffffffffff1681565b6000610f0461120f565b73ffffffffffffffffffffffffffffffffffffffff16610f22610cce565b73ffffffffffffffffffffffffffffffffffffffff1614610f78576040517f08c379a0000000000000000000000000000000000000000000000000000000008152600401610f6f90613347565b60405180910390fd5b610f826008611a99565b6000610f8e6008611aaf565b9050610f9a3382611abd565b610fa48184611c8b565b80915050919050565b6000600560008473ffffffffffffffffffffffffffffffffffffffff1673ffffffffffffffffffffffffffffffffffffffff16815260200190815260200160002060008373ffffffffffffffffffffffffffffffffffffffff1673ffffffffffffffffffffffffffffffffffffffff16815260200190815260200160002060009054906101000a900460ff16905092915050565b61104961120f565b73ffffffffffffffffffffffffffffffffffffffff16611067610cce565b73ffffffffffffffffffffffffffffffffffffffff16146110bd576040517f08c379a00000000000000000000000000000000000000000000000000000000081526004016110b490613347565b60405180910390fd5b600073ffffffffffffffffffffffffffffffffffffffff168173ffffffffffffffffffffffffffffffffffffffff16141561112d576040517f08c379a000000000000000000000000000000000000000000000000000000000815260040161112490613187565b60405180910390fd5b611136816116b8565b50565b60007f01ffc9a7000000000000000000000000000000000000000000000000000000007bffffffffffffffffffffffffffffffffffffffffffffffffffffffff1916827bffffffffffffffffffffffffffffffffffffffffffffffffffffffff1916149050919050565b60008073ffffffffffffffffffffffffffffffffffffffff166002600084815260200190815260200160002060009054906101000a900473ffffffffffffffffffffffffffffffffffffffff1673ffffffffffffffffffffffffffffffffffffffff1614159050919050565b600033905090565b816004600083815260200190815260200160002060006101000a81548173ffffffffffffffffffffffffffffffffffffffff021916908373ffffffffffffffffffffffffffffffffffffffff160217905550808273ffffffffffffffffffffffffffffffffffffffff1661128a83610adc565b73ffffffffffffffffffffffffffffffffffffffff167f8c5be1e5ebec7d5bd14f71427d1e84f3dd0314c0f7b2291e5b200ac8c7c3b92560405160405180910390a45050565b61136c848484846040516024016112ea949392919061311b565b6040516020818303038152906040527f6eb7943d000000000000000000000000000000000000000000000000000000007bffffffffffffffffffffffffffffffffffffffffffffffffffffffff19166020820180517bffffffffffffffffffffffffffffffffffffffffffffffffffffffff8381831617835250505050611cff565b50505050565b600061137d826111a3565b6113bc576040517f08c379a00000000000000000000000000000000000000000000000000000000081526004016113b390613207565b60405180910390fd5b60006113c783610adc565b90508073ffffffffffffffffffffffffffffffffffffffff168473ffffffffffffffffffffffffffffffffffffffff16148061143657508373ffffffffffffffffffffffffffffffffffffffff1661141e84610557565b73ffffffffffffffffffffffffffffffffffffffff16145b8061144757506114468185610fad565b5b91505092915050565b8273ffffffffffffffffffffffffffffffffffffffff1661147082610adc565b73ffffffffffffffffffffffffffffffffffffffff16146114c6576040517f08c379a00000000000000000000000000000000000000000000000000000000081526004016114bd90613367565b60405180910390fd5b600073ffffffffffffffffffffffffffffffffffffffff168273ffffffffffffffffffffffffffffffffffffffff161415611536576040517f08c379a000000000000000000000000000000000000000000000000000000000815260040161152d906131c7565b60405180910390fd5b611541838383611d28565b61154c600082611217565b6001600360008573ffffffffffffffffffffffffffffffffffffffff1673ffffffffffffffffffffffffffffffffffffffff168152602001908152602001600020600082825461159c919061357d565b925050819055506001600360008473ffffffffffffffffffffffffffffffffffffffff1673ffffffffffffffffffffffffffffffffffffffff16815260200190815260200160002060008282546115f391906134f6565b92505081905550816002600083815260200190815260200160002060006101000a81548173ffffffffffffffffffffffffffffffffffffffff021916908373ffffffffffffffffffffffffffffffffffffffff160217905550808273ffffffffffffffffffffffffffffffffffffffff168473ffffffffffffffffffffffffffffffffffffffff167fddf252ad1be2c89b69c2b068fc378daa952ba7f163c4a11628f55a4df523b3ef60405160405180910390a4505050565b6116b581611d2d565b50565b6000600760009054906101000a900473ffffffffffffffffffffffffffffffffffffffff16905081600760006101000a81548173ffffffffffffffffffffffffffffffffffffffff021916908373ffffffffffffffffffffffffffffffffffffffff1602179055508173ffffffffffffffffffffffffffffffffffffffff168173ffffffffffffffffffffffffffffffffffffffff167f8be0079c531659141344cd1fd0a4f28419497f9722a3daafe3b4186f6b6457e060405160405180910390a35050565b8173ffffffffffffffffffffffffffffffffffffffff168373ffffffffffffffffffffffffffffffffffffffff1614156117ed576040517f08c379a00000000000000000000000000000000000000000000000000000000081526004016117e4906131e7565b60405180910390fd5b80600560008573ffffffffffffffffffffffffffffffffffffffff1673ffffffffffffffffffffffffffffffffffffffff16815260200190815260200160002060008473ffffffffffffffffffffffffffffffffffffffff1673ffffffffffffffffffffffffffffffffffffffff16815260200190815260200160002060006101000a81548160ff0219169083151502179055508173ffffffffffffffffffffffffffffffffffffffff168373ffffffffffffffffffffffffffffffffffffffff167f17307eab39ab6107e8899845ad3d59bd9653f200f220920489ca2b5937696c31836040516118de91906130de565b60405180910390a3505050565b6118f6848484611450565b61190284848484611d80565b611941576040517f08c379a000000000000000000000000000000000000000000000000000000000815260040161193890613167565b60405180910390fd5b50505050565b6060611952826111a3565b611991576040517f08c379a0000000000000000000000000000000000000000000000000000000008152600401611988906132e7565b60405180910390fd5b60006006600084815260200190815260200160002080546119b190613667565b80601f01602080910402602001604051908101604052809291908181526020018280546119dd90613667565b8015611a2a5780601f106119ff57610100808354040283529160200191611a2a565b820191906000526020600020905b815481529060010190602001808311611a0d57829003601f168201915b505050505090506000611a3b611f17565b9050600081511415611a51578192505050611a94565b600082511115611a86578082604051602001611a6e929190613053565b60405160208183030381529060405292505050611a94565b611a8f84611f2e565b925050505b919050565b6001816000016000828254019250508190555050565b600081600001549050919050565b600073ffffffffffffffffffffffffffffffffffffffff168273ffffffffffffffffffffffffffffffffffffffff161415611b2d576040517f08c379a0000000000000000000000000000000000000000000000000000000008152600401611b24906132c7565b60405180910390fd5b611b36816111a3565b15611b76576040517f08c379a0000000000000000000000000000000000000000000000000000000008152600401611b6d906131a7565b60405180910390fd5b611b8260008383611d28565b6001600360008473ffffffffffffffffffffffffffffffffffffffff1673ffffffffffffffffffffffffffffffffffffffff1681526020019081526020016000206000828254611bd291906134f6565b92505081905550816002600083815260200190815260200160002060006101000a81548173ffffffffffffffffffffffffffffffffffffffff021916908373ffffffffffffffffffffffffffffffffffffffff160217905550808273ffffffffffffffffffffffffffffffffffffffff16600073ffffffffffffffffffffffffffffffffffffffff167fddf252ad1be2c89b69c2b068fc378daa952ba7f163c4a11628f55a4df523b3ef60405160405180910390a45050565b611c94826111a3565b611cd3576040517f08c379a0000000000000000000000000000000000000000000000000000000008152600401611cca906132a7565b60405180910390fd5b80600660008481526020019081526020016000209080519060200190611cfa9291906122a6565b505050565b60008151905060006a636f6e736f6c652e6c6f679050602083016000808483855afa5050505050565b505050565b611d3681611fd5565b6000600660008381526020019081526020016000208054611d5690613667565b905014611d7d57600660008281526020019081526020016000206000611d7c919061232c565b5b50565b6000611da18473ffffffffffffffffffffffffffffffffffffffff166120e6565b15611f0a578373ffffffffffffffffffffffffffffffffffffffff1663150b7a02611dca61120f565b8786866040518563ffffffff1660e01b8152600401611dec9493929190613092565b602060405180830381600087803b158015611e0657600080fd5b505af1925050508015611e3757506040513d601f19601f82011682018060405250810190611e349190612692565b60015b611eba573d8060008114611e67576040519150601f19603f3d011682016040523d82523d6000602084013e611e6c565b606091505b50600081511415611eb2576040517f08c379a0000000000000000000000000000000000000000000000000000000008152600401611ea990613167565b60405180910390fd5b805181602001fd5b63150b7a0260e01b7bffffffffffffffffffffffffffffffffffffffffffffffffffffffff1916817bffffffffffffffffffffffffffffffffffffffffffffffffffffffff191614915050611f0f565b600190505b949350505050565b606060405180602001604052806000815250905090565b6060611f39826111a3565b611f78576040517f08c379a0000000000000000000000000000000000000000000000000000000008152600401611f6f90613387565b60405180910390fd5b6000611f82611f17565b90506000815111611fa25760405180602001604052806000815250611fcd565b80611fac846120f9565b604051602001611fbd929190613053565b6040516020818303038152906040525b915050919050565b6000611fe082610adc565b9050611fee81600084611d28565b611ff9600083611217565b6001600360008373ffffffffffffffffffffffffffffffffffffffff1673ffffffffffffffffffffffffffffffffffffffff1681526020019081526020016000206000828254612049919061357d565b925050819055506002600083815260200190815260200160002060006101000a81549073ffffffffffffffffffffffffffffffffffffffff021916905581600073ffffffffffffffffffffffffffffffffffffffff168273ffffffffffffffffffffffffffffffffffffffff167fddf252ad1be2c89b69c2b068fc378daa952ba7f163c4a11628f55a4df523b3ef60405160405180910390a45050565b600080823b905060008111915050919050565b60606000821415612141576040518060400160405280600181526020017f300000000000000000000000000000000000000000000000000000000000000081525090506122a1565b600082905060005b6000821461217357808061215c90613699565b915050600a8261216c919061354c565b9150612149565b60008167ffffffffffffffff8111156121b5577f4e487b7100000000000000000000000000000000000000000000000000000000600052604160045260246000fd5b6040519080825280601f01601f1916602001820160405280156121e75781602001600182028036833780820191505090505b5090505b6000851461229a57600182612200919061357d565b9150600a8561220f91906136e2565b603061221b91906134f6565b60f81b818381518110612257577f4e487b7100000000000000000000000000000000000000000000000000000000600052603260045260246000fd5b60200101907effffffffffffffffffffffffffffffffffffffffffffffffffffffffffffff1916908160001a905350600a85612293919061354c565b94506121eb565b8093505050505b919050565b8280546122b290613667565b90600052602060002090601f0160209004810192826122d4576000855561231b565b82601f106122ed57805160ff191683800117855561231b565b8280016001018555821561231b579182015b8281111561231a5782518255916020019190600101906122ff565b5b509050612328919061236c565b5090565b50805461233890613667565b6000825580601f1061234a5750612369565b601f016020900490600052602060002090810190612368919061236c565b5b50565b5b8082111561238557600081600090555060010161236d565b5090565b600061239c61239784613453565b613422565b9050828152602081018484840111156123b457600080fd5b6123bf848285613625565b509392505050565b60006123da6123d584613483565b613422565b9050828152602081018484840111156123f257600080fd5b6123fd848285613625565b509392505050565b600081359050612414816137e0565b92915050565b600081359050612429816137f7565b92915050565b60008135905061243e8161380e565b92915050565b6000815190506124538161380e565b92915050565b600082601f83011261246a57600080fd5b813561247a848260208601612389565b91505092915050565b600082601f83011261249457600080fd5b81356124a48482602086016123c7565b91505092915050565b6000813590506124bc81613825565b92915050565b6000602082840312156124d457600080fd5b60006124e284828501612405565b91505092915050565b600080604083850312156124fe57600080fd5b600061250c85828601612405565b925050602061251d85828601612405565b9150509250929050565b60008060006060848603121561253c57600080fd5b600061254a86828701612405565b935050602061255b86828701612405565b925050604061256c868287016124ad565b9150509250925092565b6000806000806080858703121561258c57600080fd5b600061259a87828801612405565b94505060206125ab87828801612405565b93505060406125bc878288016124ad565b925050606085013567ffffffffffffffff8111156125d957600080fd5b6125e587828801612459565b91505092959194509250565b6000806040838503121561260457600080fd5b600061261285828601612405565b92505060206126238582860161241a565b9150509250929050565b6000806040838503121561264057600080fd5b600061264e85828601612405565b925050602061265f858286016124ad565b9150509250929050565b60006020828403121561267b57600080fd5b60006126898482850161242f565b91505092915050565b6000602082840312156126a457600080fd5b60006126b284828501612444565b91505092915050565b6000602082840312156126cd57600080fd5b600082013567ffffffffffffffff8111156126e757600080fd5b6126f384828501612483565b91505092915050565b60006020828403121561270e57600080fd5b600061271c848285016124ad565b91505092915050565b61272e816135b1565b82525050565b61273d816135c3565b82525050565b600061274e826134b3565b61275881856134c9565b9350612768818560208601613634565b612771816137cf565b840191505092915050565b6000612787826134be565b61279181856134da565b93506127a1818560208601613634565b6127aa816137cf565b840191505092915050565b60006127c0826134be565b6127ca81856134eb565b93506127da818560208601613634565b80840191505092915050565b60006127f36032836134da565b91507f4552433732313a207472616e7366657220746f206e6f6e20455243373231526560008301527f63656976657220696d706c656d656e74657200000000000000000000000000006020830152604082019050919050565b60006128596026836134da565b91507f4f776e61626c653a206e6577206f776e657220697320746865207a65726f206160008301527f64647265737300000000000000000000000000000000000000000000000000006020830152604082019050919050565b60006128bf601c836134da565b91507f4552433732313a20746f6b656e20616c7265616479206d696e746564000000006000830152602082019050919050565b60006128ff6024836134da565b91507f4552433732313a207472616e7366657220746f20746865207a65726f2061646460008301527f72657373000000000000000000000000000000000000000000000000000000006020830152604082019050919050565b60006129656019836134da565b91507f4552433732313a20617070726f766520746f2063616c6c6572000000000000006000830152602082019050919050565b60006129a5602c836134da565b91507f4552433732313a206f70657261746f7220717565727920666f72206e6f6e657860008301527f697374656e7420746f6b656e00000000000000000000000000000000000000006020830152604082019050919050565b6000612a0b606e836134da565b91507f436f756e64206e6f742073616665207472616e73666572206265747765656e2060008301527f706572736f6e202866726f6d2073686f756c64206265206f776e6572206f722060208301527f65786368616e676529206f722028746f2073686f756c64206265206f776e657260408301527f206f722065786368616e676529200000000000000000000000000000000000006060830152608082019050919050565b6000612abd6038836134da565b91507f4552433732313a20617070726f76652063616c6c6572206973206e6f74206f7760008301527f6e6572206e6f7220617070726f76656420666f7220616c6c00000000000000006020830152604082019050919050565b6000612b23602a836134da565b91507f4552433732313a2062616c616e636520717565727920666f7220746865207a6560008301527f726f2061646472657373000000000000000000000000000000000000000000006020830152604082019050919050565b6000612b896029836134da565b91507f4552433732313a206f776e657220717565727920666f72206e6f6e657869737460008301527f656e7420746f6b656e00000000000000000000000000000000000000000000006020830152604082019050919050565b6000612bef602e836134da565b91507f45524337323155524953746f726167653a2055524920736574206f66206e6f6e60008301527f6578697374656e7420746f6b656e0000000000000000000000000000000000006020830152604082019050919050565b6000612c556020836134da565b91507f4552433732313a206d696e7420746f20746865207a65726f20616464726573736000830152602082019050919050565b6000612c956031836134da565b91507f45524337323155524953746f726167653a2055524920717565727920666f722060008301527f6e6f6e6578697374656e7420746f6b656e0000000000000000000000000000006020830152604082019050919050565b6000612cfb602c836134da565b91507f4552433732313a20617070726f76656420717565727920666f72206e6f6e657860008301527f697374656e7420746f6b656e00000000000000000000000000000000000000006020830152604082019050919050565b6000612d616069836134da565b91507f436f756e64206e6f74207472616e73666572206265747765656e20706572736f60008301527f6e202866726f6d2073686f756c64206265206f776e6572206f7220657863686160208301527f6e676529206f722028746f2073686f756c64206265206f776e6572206f72206560408301527f786368616e6765292000000000000000000000000000000000000000000000006060830152608082019050919050565b6000612e136020836134da565b91507f4f776e61626c653a2063616c6c6572206973206e6f7420746865206f776e65726000830152602082019050919050565b6000612e536029836134da565b91507f4552433732313a207472616e73666572206f6620746f6b656e2074686174206960008301527f73206e6f74206f776e00000000000000000000000000000000000000000000006020830152604082019050919050565b6000612eb9602f836134da565b91507f4552433732314d657461646174613a2055524920717565727920666f72206e6f60008301527f6e6578697374656e7420746f6b656e00000000000000000000000000000000006020830152604082019050919050565b6000612f1f6021836134da565b91507f4552433732313a20617070726f76616c20746f2063757272656e74206f776e6560008301527f72000000000000000000000000000000000000000000000000000000000000006020830152604082019050919050565b6000612f856031836134da565b91507f4552433732313a207472616e736665722063616c6c6572206973206e6f74206f60008301527f776e6572206e6f7220617070726f7665640000000000000000000000000000006020830152604082019050919050565b6000612feb6030836134da565b91507f4552433732314275726e61626c653a2063616c6c6572206973206e6f74206f7760008301527f6e6572206e6f7220617070726f766564000000000000000000000000000000006020830152604082019050919050565b61304d8161361b565b82525050565b600061305f82856127b5565b915061306b82846127b5565b91508190509392505050565b600060208201905061308c6000830184612725565b92915050565b60006080820190506130a76000830187612725565b6130b46020830186612725565b6130c16040830185613044565b81810360608301526130d38184612743565b905095945050505050565b60006020820190506130f36000830184612734565b92915050565b60006020820190508181036000830152613113818461277c565b905092915050565b60006080820190508181036000830152613135818761277c565b90506131446020830186612725565b6131516040830185612725565b61315e6060830184613044565b95945050505050565b60006020820190508181036000830152613180816127e6565b9050919050565b600060208201905081810360008301526131a08161284c565b9050919050565b600060208201905081810360008301526131c0816128b2565b9050919050565b600060208201905081810360008301526131e0816128f2565b9050919050565b6000602082019050818103600083015261320081612958565b9050919050565b6000602082019050818103600083015261322081612998565b9050919050565b60006020820190508181036000830152613240816129fe565b9050919050565b6000602082019050818103600083015261326081612ab0565b9050919050565b6000602082019050818103600083015261328081612b16565b9050919050565b600060208201905081810360008301526132a081612b7c565b9050919050565b600060208201905081810360008301526132c081612be2565b9050919050565b600060208201905081810360008301526132e081612c48565b9050919050565b6000602082019050818103600083015261330081612c88565b9050919050565b6000602082019050818103600083015261332081612cee565b9050919050565b6000602082019050818103600083015261334081612d54565b9050919050565b6000602082019050818103600083015261336081612e06565b9050919050565b6000602082019050818103600083015261338081612e46565b9050919050565b600060208201905081810360008301526133a081612eac565b9050919050565b600060208201905081810360008301526133c081612f12565b9050919050565b600060208201905081810360008301526133e081612f78565b9050919050565b6000602082019050818103600083015261340081612fde565b9050919050565b600060208201905061341c6000830184613044565b92915050565b6000604051905081810181811067ffffffffffffffff82111715613449576134486137a0565b5b8060405250919050565b600067ffffffffffffffff82111561346e5761346d6137a0565b5b601f19601f8301169050602081019050919050565b600067ffffffffffffffff82111561349e5761349d6137a0565b5b601f19601f8301169050602081019050919050565b600081519050919050565b600081519050919050565b600082825260208201905092915050565b600082825260208201905092915050565b600081905092915050565b60006135018261361b565b915061350c8361361b565b9250827fffffffffffffffffffffffffffffffffffffffffffffffffffffffffffffffff0382111561354157613540613713565b5b828201905092915050565b60006135578261361b565b91506135628361361b565b92508261357257613571613742565b5b828204905092915050565b60006135888261361b565b91506135938361361b565b9250828210156135a6576135a5613713565b5b828203905092915050565b60006135bc826135fb565b9050919050565b60008115159050919050565b60007fffffffff0000000000000000000000000000000000000000000000000000000082169050919050565b600073ffffffffffffffffffffffffffffffffffffffff82169050919050565b6000819050919050565b82818337600083830152505050565b60005b83811015613652578082015181840152602081019050613637565b83811115613661576000848401525b50505050565b6000600282049050600182168061367f57607f821691505b6020821081141561369357613692613771565b5b50919050565b60006136a48261361b565b91507fffffffffffffffffffffffffffffffffffffffffffffffffffffffffffffffff8214156136d7576136d6613713565b5b600182019050919050565b60006136ed8261361b565b91506136f88361361b565b92508261370857613707613742565b5b828206905092915050565b7f4e487b7100000000000000000000000000000000000000000000000000000000600052601160045260246000fd5b7f4e487b7100000000000000000000000000000000000000000000000000000000600052601260045260246000fd5b7f4e487b7100000000000000000000000000000000000000000000000000000000600052602260045260246000fd5b7f4e487b7100000000000000000000000000000000000000000000000000000000600052604160045260246000fd5b6000601f19601f8301169050919050565b6137e9816135b1565b81146137f457600080fd5b50565b613800816135c3565b811461380b57600080fd5b50565b613817816135cf565b811461382257600080fd5b50565b61382e8161361b565b811461383957600080fd5b5056fe736166655472616e736665722066726f6d3a2025732c20746f3a2025732c20746f6b656e49643a2025737472616e736665722066726f6d3a2025732c20746f3a2025732c20746f6b656e49643a202573a26469706673582212205b851753b7c3d67072119b01be9b380757cdc324bfc887f59fefb766317bd96264736f6c63430008000033",
  "linkReferences": {},
  "deployedLinkReferences": {}
}